{"contracts/PersonalDataRegistry.sol":{"PersonalDataRegistry":{"abi":[{"anonymous":false,"inputs":[{"indexed":true,"internalType":"address","name":"owner","type":"address"},{"indexed":true,"internalType":"address","name":"viewer","type":"address"},{"indexed":true,"internalType":"enum PersonalDataRegistry.DataCategory","name":"category","type":"uint8"}],"name":"AccessGranted","type":"event"},{"anonymous":false,"inputs":[{"indexed":true,"internalType":"address","name":"owner","type":"address"},{"indexed":true,"internalType":"address","name":"viewer","type":"address"},{"indexed":true,"internalType":"enum PersonalDataRegistry.DataCategory","name":"category","type":"uint8"}],"name":"AccessRevoked","type":"event"},{"anonymous":false,"inputs":[{"indexed":true,"internalType":"address","name":"owner","type":"address"},{"indexed":true,"internalType":"enum PersonalDataRegistry.DataCategory","name":"category","type":"uint8"},{"indexed":false,"internalType":"uint256","name":"timestamp","type":"uint256"}],"name":"DataUploaded","type":"event"},{"inputs":[{"internalType":"address","name":"owner","type":"address"},{"internalType":"enum PersonalDataRegistry.DataCategory","name":"category","type":"uint8"}],"name":"getContentKey","outputs":[{"internalType":"string","name":"","type":"string"}],"stateMutability":"view","type":"function"},{"inputs":[{"internalType":"address","name":"user","type":"address"}],"name":"getUserCategories","outputs":[{"internalType":"enum PersonalDataRegistry.DataCategory[]","name":"","type":"uint8[]"}],"stateMutability":"view","type":"function"},{"inputs":[{"internalType":"address","name":"viewer","type":"address"},{"internalType":"enum PersonalDataRegistry.DataCategory","name":"category","type":"uint8"}],"name":"grantAccess","outputs":[],"stateMutability":"nonpayable","type":"function"},{"inputs":[{"internalType":"address","name":"user","type":"address"},{"internalType":"enum PersonalDataRegistry.DataCategory","name":"category","type":"uint8"}],"name":"hasData","outputs":[{"internalType":"bool","name":"","type":"bool"}],"stateMutability":"view","type":"function"},{"inputs":[{"internalType":"address","name":"owner","type":"address"},{"internalType":"address","name":"viewer","type":"address"},{"internalType":"enum PersonalDataRegistry.DataCategory","name":"category","type":"uint8"}],"name":"isApproved","outputs":[{"internalType":"bool","name":"","type":"bool"}],"stateMutability":"view","type":"function"},{"inputs":[{"internalType":"address","name":"viewer","type":"address"},{"internalType":"enum PersonalDataRegistry.DataCategory","name":"category","type":"uint8"}],"name":"revokeAccess","outputs":[],"stateMutability":"nonpayable","type":"function"},{"inputs":[{"internalType":"enum PersonalDataRegistry.DataCategory","name":"category","type":"uint8"},{"internalType":"string","name":"contentKey","type":"string"}],"name":"uploadData","outputs":[],"stateMutability":"nonpayable","type":"function"}],"evm":{"bytecode":{"linkReferences":{},"object":"608060405234801561001057600080fd5b50610df0806100206000396000f3fe608060405234801561001057600080fd5b506004361061007d5760003560e01c8063ae4d5f121161005b578063ae4d5f12146100d3578063c929a3a8146100f6578063cf68367714610109578063e41689cb1461011c57600080fd5b806308a1e237146100825780636f925535146100ab57806387ed1bd0146100c0575b600080fd5b610095610090366004610a7a565b61013c565b6040516100a29190610aad565b60405180910390f35b6100be6100b9366004610a7a565b610378565b005b6100be6100ce366004610a7a565b6104c4565b6100e66100e1366004610a7a565b6106aa565b60405190151581526020016100a2565b6100be610104366004610afb565b610704565b6100e6610117366004610b7e565b610944565b61012f61012a366004610bc1565b6109b3565b6040516100a29190610bf9565b6060336001600160a01b03841614806101ae57506001600160a01b03831660009081526001602052604081209083600581111561017b5761017b610be3565b600581111561018c5761018c610be3565b81526020808201929092526040908101600090812033825290925290205460ff165b6101ff5760405162461bcd60e51b815260206004820181905260248201527f4e6f7420617574686f72697a656420746f20766965772074686973206461746160448201526064015b60405180910390fd5b6001600160a01b03831660009081526020819052604081209083600581111561022a5761022a610be3565b600581111561023b5761023b610be3565b815260208101919091526040016000206003015460ff1661029a5760405162461bcd60e51b81526020600482015260196024820152784e6f206461746120666f7220746869732063617465676f727960381b60448201526064016101f6565b6001600160a01b0383166000908152602081905260408120908360058111156102c5576102c5610be3565b60058111156102d6576102d6610be3565b815260200190815260200160002060010180546102f290610c5b565b80601f016020809104026020016040519081016040528092919081815260200182805461031e90610c5b565b801561036b5780601f106103405761010080835404028352916020019161036b565b820191906000526020600020905b81548152906001019060200180831161034e57829003601f168201915b5050505050905092915050565b3360009081526001602052604081209082600581111561039a5761039a610be3565b60058111156103ab576103ab610be3565b8152602080820192909252604090810160009081206001600160a01b038616825290925290205460ff166104105760405162461bcd60e51b815260206004820152600c60248201526b139bdd08185c1c1c9bdd995960a21b60448201526064016101f6565b3360009081526001602052604081208183600581111561043257610432610be3565b600581111561044357610443610be3565b8152602080820192909252604090810160009081206001600160a01b03871682529092529020805460ff191691151591909117905580600581111561048a5761048a610be3565b6040516001600160a01b0384169033907f349fdac62e52dc85b55b8f76b0f91f1fef9ca6d4b07755ac804d7c97da1b198990600090a45050565b336000908152602081905260408120908260058111156104e6576104e6610be3565b60058111156104f7576104f7610be3565b815260208101919091526040016000206003015460ff166105565760405162461bcd60e51b81526020600482015260196024820152784e6f206461746120666f7220746869732063617465676f727960381b60448201526064016101f6565b3360009081526001602052604081209082600581111561057857610578610be3565b600581111561058957610589610be3565b8152602080820192909252604090810160009081206001600160a01b038616825290925290205460ff16156105f35760405162461bcd60e51b815260206004820152601060248201526f105b1c9958591e48185c1c1c9bdd995960821b60448201526064016101f6565b3360009081526001602081905260408220909183600581111561061857610618610be3565b600581111561062957610629610be3565b8152602080820192909252604090810160009081206001600160a01b03871682529092529020805460ff191691151591909117905580600581111561067057610670610be3565b6040516001600160a01b0384169033907fc2b5e6f861f43611062b511ecb54443548e07a6d51239b90892bc2a90b83339e90600090a45050565b6001600160a01b0382166000908152602081905260408120818360058111156106d5576106d5610be3565b60058111156106e6576106e6610be3565b815260208101919091526040016000206003015460ff169392505050565b3360009081526003602052604081209084600581111561072657610726610be3565b600581111561073757610737610be3565b815260208101919091526040016000205460ff166107f35733600090815260026020908152604082208054600181018255908352918190209082040180548592601f166101000a60ff8102199091169083600581111561079957610799610be3565b02179055503360009081526003602052604081206001918560058111156107c2576107c2610be3565b60058111156107d3576107d3610be3565b81526020810191909152604001600020805460ff19169115159190911790555b604051806080016040528084600581111561081057610810610be3565b815260200183838080601f01602080910402602001604051908101604052809392919081815260200183838082843760009201829052509385525050426020808501919091526001604094850152338352829052509081209085600581111561087b5761087b610be3565b600581111561088c5761088c610be3565b8152602081019190915260400160002081518154829060ff191660018360058111156108ba576108ba610be3565b0217905550602082015160018201906108d39082610cfa565b50604082015160028201556060909101516003909101805460ff191691151591909117905582600581111561090a5761090a610be3565b60405142815233907f89c3c302367dbe6fa258902dbc965e40df255bc4d409460bb7d7664494aa0b5d9060200160405180910390a3505050565b6001600160a01b03831660009081526001602052604081208183600581111561096f5761096f610be3565b600581111561098057610980610be3565b8152602080820192909252604090810160009081206001600160a01b038716825290925290205460ff1690509392505050565b6001600160a01b038116600090815260026020908152604091829020805483518184028101840190945280845260609392830182828015610a4357602002820191906000526020600020906000905b82829054906101000a900460ff166005811115610a2157610a21610be3565b815260206001928301818104948501949093039092029101808411610a025790505b50505050509050919050565b80356001600160a01b0381168114610a6657600080fd5b919050565b803560068110610a6657600080fd5b60008060408385031215610a8d57600080fd5b610a9683610a4f565b9150610aa460208401610a6b565b90509250929050565b600060208083528351808285015260005b81811015610ada57858101830151858201604001528201610abe565b506000604082860101526040601f19601f8301168501019250505092915050565b600080600060408486031215610b1057600080fd5b610b1984610a6b565b9250602084013567ffffffffffffffff80821115610b3657600080fd5b818601915086601f830112610b4a57600080fd5b813581811115610b5957600080fd5b876020828501011115610b6b57600080fd5b6020830194508093505050509250925092565b600080600060608486031215610b9357600080fd5b610b9c84610a4f565b9250610baa60208501610a4f565b9150610bb860408501610a6b565b90509250925092565b600060208284031215610bd357600080fd5b610bdc82610a4f565b9392505050565b634e487b7160e01b600052602160045260246000fd5b602080825282518282018190526000919084820190604085019084805b82811015610c4e57845160068110610c3c57634e487b7160e01b83526021600452602483fd5b84529385019392850192600101610c16565b5091979650505050505050565b600181811c90821680610c6f57607f821691505b602082108103610c8f57634e487b7160e01b600052602260045260246000fd5b50919050565b634e487b7160e01b600052604160045260246000fd5b601f821115610cf557600081815260208120601f850160051c81016020861015610cd25750805b601f850160051c820191505b81811015610cf157828155600101610cde565b5050505b505050565b815167ffffffffffffffff811115610d1457610d14610c95565b610d2881610d228454610c5b565b84610cab565b602080601f831160018114610d5d5760008415610d455750858301515b600019600386901b1c1916600185901b178555610cf1565b600085815260208120601f198616915b82811015610d8c57888601518255948401946001909101908401610d6d565b5085821015610daa5787850151600019600388901b60f8161c191681555b5050505050600190811b0190555056fea26469706673582212207b081c8a9651eba44cc26cfbc39ce18e30d560a60dffe1e0983219fe097bc5d764736f6c63430008130033","opcodes":"PUSH1 0x80 PUSH1 0x40 MSTORE CALLVALUE DUP1 ISZERO PUSH2 0x10 JUMPI PUSH1 0x0 DUP1 REVERT JUMPDEST POP PUSH2 0xDF0 DUP1 PUSH2 0x20 PUSH1 0x0 CODECOPY PUSH1 0x0 RETURN INVALID PUSH1 0x80 PUSH1 0x40 MSTORE CALLVALUE DUP1 ISZERO PUSH2 0x10 JUMPI PUSH1 0x0 DUP1 REVERT JUMPDEST POP PUSH1 0x4 CALLDATASIZE LT PUSH2 0x7D JUMPI PUSH1 0x0 CALLDATALOAD PUSH1 0xE0 SHR DUP1 PUSH4 0xAE4D5F12 GT PUSH2 0x5B JUMPI DUP1 PUSH4 0xAE4D5F12 EQ PUSH2 0xD3 JUMPI DUP1 PUSH4 0xC929A3A8 EQ PUSH2 0xF6 JUMPI DUP1 PUSH4 0xCF683677 EQ PUSH2 0x109 JUMPI DUP1 PUSH4 0xE41689CB EQ PUSH2 0x11C JUMPI PUSH1 0x0 DUP1 REVERT JUMPDEST DUP1 PUSH4 0x8A1E237 EQ PUSH2 0x82 JUMPI DUP1 PUSH4 0x6F925535 EQ PUSH2 0xAB JUMPI DUP1 PUSH4 0x87ED1BD0 EQ PUSH2 0xC0 JUMPI JUMPDEST PUSH1 0x0 DUP1 REVERT JUMPDEST PUSH2 0x95 PUSH2 0x90 CALLDATASIZE PUSH1 0x4 PUSH2 0xA7A JUMP JUMPDEST PUSH2 0x13C JUMP JUMPDEST PUSH1 0x40 MLOAD PUSH2 0xA2 SWAP2 SWAP1 PUSH2 0xAAD JUMP JUMPDEST PUSH1 0x40 MLOAD DUP1 SWAP2 SUB SWAP1 RETURN JUMPDEST PUSH2 0xBE PUSH2 0xB9 CALLDATASIZE PUSH1 0x4 PUSH2 0xA7A JUMP JUMPDEST PUSH2 0x378 JUMP JUMPDEST STOP JUMPDEST PUSH2 0xBE PUSH2 0xCE CALLDATASIZE PUSH1 0x4 PUSH2 0xA7A JUMP JUMPDEST PUSH2 0x4C4 JUMP JUMPDEST PUSH2 0xE6 PUSH2 0xE1 CALLDATASIZE PUSH1 0x4 PUSH2 0xA7A JUMP JUMPDEST PUSH2 0x6AA JUMP JUMPDEST PUSH1 0x40 MLOAD SWAP1 ISZERO ISZERO DUP2 MSTORE PUSH1 0x20 ADD PUSH2 0xA2 JUMP JUMPDEST PUSH2 0xBE PUSH2 0x104 CALLDATASIZE PUSH1 0x4 PUSH2 0xAFB JUMP JUMPDEST PUSH2 0x704 JUMP JUMPDEST PUSH2 0xE6 PUSH2 0x117 CALLDATASIZE PUSH1 0x4 PUSH2 0xB7E JUMP JUMPDEST PUSH2 0x944 JUMP JUMPDEST PUSH2 0x12F PUSH2 0x12A CALLDATASIZE PUSH1 0x4 PUSH2 0xBC1 JUMP JUMPDEST PUSH2 0x9B3 JUMP JUMPDEST PUSH1 0x40 MLOAD PUSH2 0xA2 SWAP2 SWAP1 PUSH2 0xBF9 JUMP JUMPDEST PUSH1 0x60 CALLER PUSH1 0x1 PUSH1 0x1 PUSH1 0xA0 SHL SUB DUP5 AND EQ DUP1 PUSH2 0x1AE JUMPI POP PUSH1 0x1 PUSH1 0x1 PUSH1 0xA0 SHL SUB DUP4 AND PUSH1 0x0 SWAP1 DUP2 MSTORE PUSH1 0x1 PUSH1 0x20 MSTORE PUSH1 0x40 DUP2 KECCAK256 SWAP1 DUP4 PUSH1 0x5 DUP2 GT ISZERO PUSH2 0x17B JUMPI PUSH2 0x17B PUSH2 0xBE3 JUMP JUMPDEST PUSH1 0x5 DUP2 GT ISZERO PUSH2 0x18C JUMPI PUSH2 0x18C PUSH2 0xBE3 JUMP JUMPDEST DUP2 MSTORE PUSH1 0x20 DUP1 DUP3 ADD SWAP3 SWAP1 SWAP3 MSTORE PUSH1 0x40 SWAP1 DUP2 ADD PUSH1 0x0 SWAP1 DUP2 KECCAK256 CALLER DUP3 MSTORE SWAP1 SWAP3 MSTORE SWAP1 KECCAK256 SLOAD PUSH1 0xFF AND JUMPDEST PUSH2 0x1FF JUMPI PUSH1 0x40 MLOAD PUSH3 0x461BCD PUSH1 0xE5 SHL DUP2 MSTORE PUSH1 0x20 PUSH1 0x4 DUP3 ADD DUP2 SWAP1 MSTORE PUSH1 0x24 DUP3 ADD MSTORE PUSH32 0x4E6F7420617574686F72697A656420746F207669657720746869732064617461 PUSH1 0x44 DUP3 ADD MSTORE PUSH1 0x64 ADD JUMPDEST PUSH1 0x40 MLOAD DUP1 SWAP2 SUB SWAP1 REVERT JUMPDEST PUSH1 0x1 PUSH1 0x1 PUSH1 0xA0 SHL SUB DUP4 AND PUSH1 0x0 SWAP1 DUP2 MSTORE PUSH1 0x20 DUP2 SWAP1 MSTORE PUSH1 0x40 DUP2 KECCAK256 SWAP1 DUP4 PUSH1 0x5 DUP2 GT ISZERO PUSH2 0x22A JUMPI PUSH2 0x22A PUSH2 0xBE3 JUMP JUMPDEST PUSH1 0x5 DUP2 GT ISZERO PUSH2 0x23B JUMPI PUSH2 0x23B PUSH2 0xBE3 JUMP JUMPDEST DUP2 MSTORE PUSH1 0x20 DUP2 ADD SWAP2 SWAP1 SWAP2 MSTORE PUSH1 0x40 ADD PUSH1 0x0 KECCAK256 PUSH1 0x3 ADD SLOAD PUSH1 0xFF AND PUSH2 0x29A JUMPI PUSH1 0x40 MLOAD PUSH3 0x461BCD PUSH1 0xE5 SHL DUP2 MSTORE PUSH1 0x20 PUSH1 0x4 DUP3 ADD MSTORE PUSH1 0x19 PUSH1 0x24 DUP3 ADD MSTORE PUSH25 0x4E6F206461746120666F7220746869732063617465676F7279 PUSH1 0x38 SHL PUSH1 0x44 DUP3 ADD MSTORE PUSH1 0x64 ADD PUSH2 0x1F6 JUMP JUMPDEST PUSH1 0x1 PUSH1 0x1 PUSH1 0xA0 SHL SUB DUP4 AND PUSH1 0x0 SWAP1 DUP2 MSTORE PUSH1 0x20 DUP2 SWAP1 MSTORE PUSH1 0x40 DUP2 KECCAK256 SWAP1 DUP4 PUSH1 0x5 DUP2 GT ISZERO PUSH2 0x2C5 JUMPI PUSH2 0x2C5 PUSH2 0xBE3 JUMP JUMPDEST PUSH1 0x5 DUP2 GT ISZERO PUSH2 0x2D6 JUMPI PUSH2 0x2D6 PUSH2 0xBE3 JUMP JUMPDEST DUP2 MSTORE PUSH1 0x20 ADD SWAP1 DUP2 MSTORE PUSH1 0x20 ADD PUSH1 0x0 KECCAK256 PUSH1 0x1 ADD DUP1 SLOAD PUSH2 0x2F2 SWAP1 PUSH2 0xC5B JUMP JUMPDEST DUP1 PUSH1 0x1F ADD PUSH1 0x20 DUP1 SWAP2 DIV MUL PUSH1 0x20 ADD PUSH1 0x40 MLOAD SWAP1 DUP2 ADD PUSH1 0x40 MSTORE DUP1 SWAP3 SWAP2 SWAP1 DUP2 DUP2 MSTORE PUSH1 0x20 ADD DUP3 DUP1 SLOAD PUSH2 0x31E SWAP1 PUSH2 0xC5B JUMP JUMPDEST DUP1 ISZERO PUSH2 0x36B JUMPI DUP1 PUSH1 0x1F LT PUSH2 0x340 JUMPI PUSH2 0x100 DUP1 DUP4 SLOAD DIV MUL DUP4 MSTORE SWAP2 PUSH1 0x20 ADD SWAP2 PUSH2 0x36B JUMP JUMPDEST DUP3 ADD SWAP2 SWAP1 PUSH1 0x0 MSTORE PUSH1 0x20 PUSH1 0x0 KECCAK256 SWAP1 JUMPDEST DUP2 SLOAD DUP2 MSTORE SWAP1 PUSH1 0x1 ADD SWAP1 PUSH1 0x20 ADD DUP1 DUP4 GT PUSH2 0x34E JUMPI DUP3 SWAP1 SUB PUSH1 0x1F AND DUP3 ADD SWAP2 JUMPDEST POP POP POP POP POP SWAP1 POP SWAP3 SWAP2 POP POP JUMP JUMPDEST CALLER PUSH1 0x0 SWAP1 DUP2 MSTORE PUSH1 0x1 PUSH1 0x20 MSTORE PUSH1 0x40 DUP2 KECCAK256 SWAP1 DUP3 PUSH1 0x5 DUP2 GT ISZERO PUSH2 0x39A JUMPI PUSH2 0x39A PUSH2 0xBE3 JUMP JUMPDEST PUSH1 0x5 DUP2 GT ISZERO PUSH2 0x3AB JUMPI PUSH2 0x3AB PUSH2 0xBE3 JUMP JUMPDEST DUP2 MSTORE PUSH1 0x20 DUP1 DUP3 ADD SWAP3 SWAP1 SWAP3 MSTORE PUSH1 0x40 SWAP1 DUP2 ADD PUSH1 0x0 SWAP1 DUP2 KECCAK256 PUSH1 0x1 PUSH1 0x1 PUSH1 0xA0 SHL SUB DUP7 AND DUP3 MSTORE SWAP1 SWAP3 MSTORE SWAP1 KECCAK256 SLOAD PUSH1 0xFF AND PUSH2 0x410 JUMPI PUSH1 0x40 MLOAD PUSH3 0x461BCD PUSH1 0xE5 SHL DUP2 MSTORE PUSH1 0x20 PUSH1 0x4 DUP3 ADD MSTORE PUSH1 0xC PUSH1 0x24 DUP3 ADD MSTORE PUSH12 0x139BDD08185C1C1C9BDD9959 PUSH1 0xA2 SHL PUSH1 0x44 DUP3 ADD MSTORE PUSH1 0x64 ADD PUSH2 0x1F6 JUMP JUMPDEST CALLER PUSH1 0x0 SWAP1 DUP2 MSTORE PUSH1 0x1 PUSH1 0x20 MSTORE PUSH1 0x40 DUP2 KECCAK256 DUP2 DUP4 PUSH1 0x5 DUP2 GT ISZERO PUSH2 0x432 JUMPI PUSH2 0x432 PUSH2 0xBE3 JUMP JUMPDEST PUSH1 0x5 DUP2 GT ISZERO PUSH2 0x443 JUMPI PUSH2 0x443 PUSH2 0xBE3 JUMP JUMPDEST DUP2 MSTORE PUSH1 0x20 DUP1 DUP3 ADD SWAP3 SWAP1 SWAP3 MSTORE PUSH1 0x40 SWAP1 DUP2 ADD PUSH1 0x0 SWAP1 DUP2 KECCAK256 PUSH1 0x1 PUSH1 0x1 PUSH1 0xA0 SHL SUB DUP8 AND DUP3 MSTORE SWAP1 SWAP3 MSTORE SWAP1 KECCAK256 DUP1 SLOAD PUSH1 0xFF NOT AND SWAP2 ISZERO ISZERO SWAP2 SWAP1 SWAP2 OR SWAP1 SSTORE DUP1 PUSH1 0x5 DUP2 GT ISZERO PUSH2 0x48A JUMPI PUSH2 0x48A PUSH2 0xBE3 JUMP JUMPDEST PUSH1 0x40 MLOAD PUSH1 0x1 PUSH1 0x1 PUSH1 0xA0 SHL SUB DUP5 AND SWAP1 CALLER SWAP1 PUSH32 0x349FDAC62E52DC85B55B8F76B0F91F1FEF9CA6D4B07755AC804D7C97DA1B1989 SWAP1 PUSH1 0x0 SWAP1 LOG4 POP POP JUMP JUMPDEST CALLER PUSH1 0x0 SWAP1 DUP2 MSTORE PUSH1 0x20 DUP2 SWAP1 MSTORE PUSH1 0x40 DUP2 KECCAK256 SWAP1 DUP3 PUSH1 0x5 DUP2 GT ISZERO PUSH2 0x4E6 JUMPI PUSH2 0x4E6 PUSH2 0xBE3 JUMP JUMPDEST PUSH1 0x5 DUP2 GT ISZERO PUSH2 0x4F7 JUMPI PUSH2 0x4F7 PUSH2 0xBE3 JUMP JUMPDEST DUP2 MSTORE PUSH1 0x20 DUP2 ADD SWAP2 SWAP1 SWAP2 MSTORE PUSH1 0x40 ADD PUSH1 0x0 KECCAK256 PUSH1 0x3 ADD SLOAD PUSH1 0xFF AND PUSH2 0x556 JUMPI PUSH1 0x40 MLOAD PUSH3 0x461BCD PUSH1 0xE5 SHL DUP2 MSTORE PUSH1 0x20 PUSH1 0x4 DUP3 ADD MSTORE PUSH1 0x19 PUSH1 0x24 DUP3 ADD MSTORE PUSH25 0x4E6F206461746120666F7220746869732063617465676F7279 PUSH1 0x38 SHL PUSH1 0x44 DUP3 ADD MSTORE PUSH1 0x64 ADD PUSH2 0x1F6 JUMP JUMPDEST CALLER PUSH1 0x0 SWAP1 DUP2 MSTORE PUSH1 0x1 PUSH1 0x20 MSTORE PUSH1 0x40 DUP2 KECCAK256 SWAP1 DUP3 PUSH1 0x5 DUP2 GT ISZERO PUSH2 0x578 JUMPI PUSH2 0x578 PUSH2 0xBE3 JUMP JUMPDEST PUSH1 0x5 DUP2 GT ISZERO PUSH2 0x589 JUMPI PUSH2 0x589 PUSH2 0xBE3 JUMP JUMPDEST DUP2 MSTORE PUSH1 0x20 DUP1 DUP3 ADD SWAP3 SWAP1 SWAP3 MSTORE PUSH1 0x40 SWAP1 DUP2 ADD PUSH1 0x0 SWAP1 DUP2 KECCAK256 PUSH1 0x1 PUSH1 0x1 PUSH1 0xA0 SHL SUB DUP7 AND DUP3 MSTORE SWAP1 SWAP3 MSTORE SWAP1 KECCAK256 SLOAD PUSH1 0xFF AND ISZERO PUSH2 0x5F3 JUMPI PUSH1 0x40 MLOAD PUSH3 0x461BCD PUSH1 0xE5 SHL DUP2 MSTORE PUSH1 0x20 PUSH1 0x4 DUP3 ADD MSTORE PUSH1 0x10 PUSH1 0x24 DUP3 ADD MSTORE PUSH16 0x105B1C9958591E48185C1C1C9BDD9959 PUSH1 0x82 SHL PUSH1 0x44 DUP3 ADD MSTORE PUSH1 0x64 ADD PUSH2 0x1F6 JUMP JUMPDEST CALLER PUSH1 0x0 SWAP1 DUP2 MSTORE PUSH1 0x1 PUSH1 0x20 DUP2 SWAP1 MSTORE PUSH1 0x40 DUP3 KECCAK256 SWAP1 SWAP2 DUP4 PUSH1 0x5 DUP2 GT ISZERO PUSH2 0x618 JUMPI PUSH2 0x618 PUSH2 0xBE3 JUMP JUMPDEST PUSH1 0x5 DUP2 GT ISZERO PUSH2 0x629 JUMPI PUSH2 0x629 PUSH2 0xBE3 JUMP JUMPDEST DUP2 MSTORE PUSH1 0x20 DUP1 DUP3 ADD SWAP3 SWAP1 SWAP3 MSTORE PUSH1 0x40 SWAP1 DUP2 ADD PUSH1 0x0 SWAP1 DUP2 KECCAK256 PUSH1 0x1 PUSH1 0x1 PUSH1 0xA0 SHL SUB DUP8 AND DUP3 MSTORE SWAP1 SWAP3 MSTORE SWAP1 KECCAK256 DUP1 SLOAD PUSH1 0xFF NOT AND SWAP2 ISZERO ISZERO SWAP2 SWAP1 SWAP2 OR SWAP1 SSTORE DUP1 PUSH1 0x5 DUP2 GT ISZERO PUSH2 0x670 JUMPI PUSH2 0x670 PUSH2 0xBE3 JUMP JUMPDEST PUSH1 0x40 MLOAD PUSH1 0x1 PUSH1 0x1 PUSH1 0xA0 SHL SUB DUP5 AND SWAP1 CALLER SWAP1 PUSH32 0xC2B5E6F861F43611062B511ECB54443548E07A6D51239B90892BC2A90B83339E SWAP1 PUSH1 0x0 SWAP1 LOG4 POP POP JUMP JUMPDEST PUSH1 0x1 PUSH1 0x1 PUSH1 0xA0 SHL SUB DUP3 AND PUSH1 0x0 SWAP1 DUP2 MSTORE PUSH1 0x20 DUP2 SWAP1 MSTORE PUSH1 0x40 DUP2 KECCAK256 DUP2 DUP4 PUSH1 0x5 DUP2 GT ISZERO PUSH2 0x6D5 JUMPI PUSH2 0x6D5 PUSH2 0xBE3 JUMP JUMPDEST PUSH1 0x5 DUP2 GT ISZERO PUSH2 0x6E6 JUMPI PUSH2 0x6E6 PUSH2 0xBE3 JUMP JUMPDEST DUP2 MSTORE PUSH1 0x20 DUP2 ADD SWAP2 SWAP1 SWAP2 MSTORE PUSH1 0x40 ADD PUSH1 0x0 KECCAK256 PUSH1 0x3 ADD SLOAD PUSH1 0xFF AND SWAP4 SWAP3 POP POP POP JUMP JUMPDEST CALLER PUSH1 0x0 SWAP1 DUP2 MSTORE PUSH1 0x3 PUSH1 0x20 MSTORE PUSH1 0x40 DUP2 KECCAK256 SWAP1 DUP5 PUSH1 0x5 DUP2 GT ISZERO PUSH2 0x726 JUMPI PUSH2 0x726 PUSH2 0xBE3 JUMP JUMPDEST PUSH1 0x5 DUP2 GT ISZERO PUSH2 0x737 JUMPI PUSH2 0x737 PUSH2 0xBE3 JUMP JUMPDEST DUP2 MSTORE PUSH1 0x20 DUP2 ADD SWAP2 SWAP1 SWAP2 MSTORE PUSH1 0x40 ADD PUSH1 0x0 KECCAK256 SLOAD PUSH1 0xFF AND PUSH2 0x7F3 JUMPI CALLER PUSH1 0x0 SWAP1 DUP2 MSTORE PUSH1 0x2 PUSH1 0x20 SWAP1 DUP2 MSTORE PUSH1 0x40 DUP3 KECCAK256 DUP1 SLOAD PUSH1 0x1 DUP2 ADD DUP3 SSTORE SWAP1 DUP4 MSTORE SWAP2 DUP2 SWAP1 KECCAK256 SWAP1 DUP3 DIV ADD DUP1 SLOAD DUP6 SWAP3 PUSH1 0x1F AND PUSH2 0x100 EXP PUSH1 0xFF DUP2 MUL NOT SWAP1 SWAP2 AND SWAP1 DUP4 PUSH1 0x5 DUP2 GT ISZERO PUSH2 0x799 JUMPI PUSH2 0x799 PUSH2 0xBE3 JUMP JUMPDEST MUL OR SWAP1 SSTORE POP CALLER PUSH1 0x0 SWAP1 DUP2 MSTORE PUSH1 0x3 PUSH1 0x20 MSTORE PUSH1 0x40 DUP2 KECCAK256 PUSH1 0x1 SWAP2 DUP6 PUSH1 0x5 DUP2 GT ISZERO PUSH2 0x7C2 JUMPI PUSH2 0x7C2 PUSH2 0xBE3 JUMP JUMPDEST PUSH1 0x5 DUP2 GT ISZERO PUSH2 0x7D3 JUMPI PUSH2 0x7D3 PUSH2 0xBE3 JUMP JUMPDEST DUP2 MSTORE PUSH1 0x20 DUP2 ADD SWAP2 SWAP1 SWAP2 MSTORE PUSH1 0x40 ADD PUSH1 0x0 KECCAK256 DUP1 SLOAD PUSH1 0xFF NOT AND SWAP2 ISZERO ISZERO SWAP2 SWAP1 SWAP2 OR SWAP1 SSTORE JUMPDEST PUSH1 0x40 MLOAD DUP1 PUSH1 0x80 ADD PUSH1 0x40 MSTORE DUP1 DUP5 PUSH1 0x5 DUP2 GT ISZERO PUSH2 0x810 JUMPI PUSH2 0x810 PUSH2 0xBE3 JUMP JUMPDEST DUP2 MSTORE PUSH1 0x20 ADD DUP4 DUP4 DUP1 DUP1 PUSH1 0x1F ADD PUSH1 0x20 DUP1 SWAP2 DIV MUL PUSH1 0x20 ADD PUSH1 0x40 MLOAD SWAP1 DUP2 ADD PUSH1 0x40 MSTORE DUP1 SWAP4 SWAP3 SWAP2 SWAP1 DUP2 DUP2 MSTORE PUSH1 0x20 ADD DUP4 DUP4 DUP1 DUP3 DUP5 CALLDATACOPY PUSH1 0x0 SWAP3 ADD DUP3 SWAP1 MSTORE POP SWAP4 DUP6 MSTORE POP POP TIMESTAMP PUSH1 0x20 DUP1 DUP6 ADD SWAP2 SWAP1 SWAP2 MSTORE PUSH1 0x1 PUSH1 0x40 SWAP5 DUP6 ADD MSTORE CALLER DUP4 MSTORE DUP3 SWAP1 MSTORE POP SWAP1 DUP2 KECCAK256 SWAP1 DUP6 PUSH1 0x5 DUP2 GT ISZERO PUSH2 0x87B JUMPI PUSH2 0x87B PUSH2 0xBE3 JUMP JUMPDEST PUSH1 0x5 DUP2 GT ISZERO PUSH2 0x88C JUMPI PUSH2 0x88C PUSH2 0xBE3 JUMP JUMPDEST DUP2 MSTORE PUSH1 0x20 DUP2 ADD SWAP2 SWAP1 SWAP2 MSTORE PUSH1 0x40 ADD PUSH1 0x0 KECCAK256 DUP2 MLOAD DUP2 SLOAD DUP3 SWAP1 PUSH1 0xFF NOT AND PUSH1 0x1 DUP4 PUSH1 0x5 DUP2 GT ISZERO PUSH2 0x8BA JUMPI PUSH2 0x8BA PUSH2 0xBE3 JUMP JUMPDEST MUL OR SWAP1 SSTORE POP PUSH1 0x20 DUP3 ADD MLOAD PUSH1 0x1 DUP3 ADD SWAP1 PUSH2 0x8D3 SWAP1 DUP3 PUSH2 0xCFA JUMP JUMPDEST POP PUSH1 0x40 DUP3 ADD MLOAD PUSH1 0x2 DUP3 ADD SSTORE PUSH1 0x60 SWAP1 SWAP2 ADD MLOAD PUSH1 0x3 SWAP1 SWAP2 ADD DUP1 SLOAD PUSH1 0xFF NOT AND SWAP2 ISZERO ISZERO SWAP2 SWAP1 SWAP2 OR SWAP1 SSTORE DUP3 PUSH1 0x5 DUP2 GT ISZERO PUSH2 0x90A JUMPI PUSH2 0x90A PUSH2 0xBE3 JUMP JUMPDEST PUSH1 0x40 MLOAD TIMESTAMP DUP2 MSTORE CALLER SWAP1 PUSH32 0x89C3C302367DBE6FA258902DBC965E40DF255BC4D409460BB7D7664494AA0B5D SWAP1 PUSH1 0x20 ADD PUSH1 0x40 MLOAD DUP1 SWAP2 SUB SWAP1 LOG3 POP POP POP JUMP JUMPDEST PUSH1 0x1 PUSH1 0x1 PUSH1 0xA0 SHL SUB DUP4 AND PUSH1 0x0 SWAP1 DUP2 MSTORE PUSH1 0x1 PUSH1 0x20 MSTORE PUSH1 0x40 DUP2 KECCAK256 DUP2 DUP4 PUSH1 0x5 DUP2 GT ISZERO PUSH2 0x96F JUMPI PUSH2 0x96F PUSH2 0xBE3 JUMP JUMPDEST PUSH1 0x5 DUP2 GT ISZERO PUSH2 0x980 JUMPI PUSH2 0x980 PUSH2 0xBE3 JUMP JUMPDEST DUP2 MSTORE PUSH1 0x20 DUP1 DUP3 ADD SWAP3 SWAP1 SWAP3 MSTORE PUSH1 0x40 SWAP1 DUP2 ADD PUSH1 0x0 SWAP1 DUP2 KECCAK256 PUSH1 0x1 PUSH1 0x1 PUSH1 0xA0 SHL SUB DUP8 AND DUP3 MSTORE SWAP1 SWAP3 MSTORE SWAP1 KECCAK256 SLOAD PUSH1 0xFF AND SWAP1 POP SWAP4 SWAP3 POP POP POP JUMP JUMPDEST PUSH1 0x1 PUSH1 0x1 PUSH1 0xA0 SHL SUB DUP2 AND PUSH1 0x0 SWAP1 DUP2 MSTORE PUSH1 0x2 PUSH1 0x20 SWAP1 DUP2 MSTORE PUSH1 0x40 SWAP2 DUP3 SWAP1 KECCAK256 DUP1 SLOAD DUP4 MLOAD DUP2 DUP5 MUL DUP2 ADD DUP5 ADD SWAP1 SWAP5 MSTORE DUP1 DUP5 MSTORE PUSH1 0x60 SWAP4 SWAP3 DUP4 ADD DUP3 DUP3 DUP1 ISZERO PUSH2 0xA43 JUMPI PUSH1 0x20 MUL DUP3 ADD SWAP2 SWAP1 PUSH1 0x0 MSTORE PUSH1 0x20 PUSH1 0x0 KECCAK256 SWAP1 PUSH1 0x0 SWAP1 JUMPDEST DUP3 DUP3 SWAP1 SLOAD SWAP1 PUSH2 0x100 EXP SWAP1 DIV PUSH1 0xFF AND PUSH1 0x5 DUP2 GT ISZERO PUSH2 0xA21 JUMPI PUSH2 0xA21 PUSH2 0xBE3 JUMP JUMPDEST DUP2 MSTORE PUSH1 0x20 PUSH1 0x1 SWAP3 DUP4 ADD DUP2 DUP2 DIV SWAP5 DUP6 ADD SWAP5 SWAP1 SWAP4 SUB SWAP1 SWAP3 MUL SWAP2 ADD DUP1 DUP5 GT PUSH2 0xA02 JUMPI SWAP1 POP JUMPDEST POP POP POP POP POP SWAP1 POP SWAP2 SWAP1 POP JUMP JUMPDEST DUP1 CALLDATALOAD PUSH1 0x1 PUSH1 0x1 PUSH1 0xA0 SHL SUB DUP2 AND DUP2 EQ PUSH2 0xA66 JUMPI PUSH1 0x0 DUP1 REVERT JUMPDEST SWAP2 SWAP1 POP JUMP JUMPDEST DUP1 CALLDATALOAD PUSH1 0x6 DUP2 LT PUSH2 0xA66 JUMPI PUSH1 0x0 DUP1 REVERT JUMPDEST PUSH1 0x0 DUP1 PUSH1 0x40 DUP4 DUP6 SUB SLT ISZERO PUSH2 0xA8D JUMPI PUSH1 0x0 DUP1 REVERT JUMPDEST PUSH2 0xA96 DUP4 PUSH2 0xA4F JUMP JUMPDEST SWAP2 POP PUSH2 0xAA4 PUSH1 0x20 DUP5 ADD PUSH2 0xA6B JUMP JUMPDEST SWAP1 POP SWAP3 POP SWAP3 SWAP1 POP JUMP JUMPDEST PUSH1 0x0 PUSH1 0x20 DUP1 DUP4 MSTORE DUP4 MLOAD DUP1 DUP3 DUP6 ADD MSTORE PUSH1 0x0 JUMPDEST DUP2 DUP2 LT ISZERO PUSH2 0xADA JUMPI DUP6 DUP2 ADD DUP4 ADD MLOAD DUP6 DUP3 ADD PUSH1 0x40 ADD MSTORE DUP3 ADD PUSH2 0xABE JUMP JUMPDEST POP PUSH1 0x0 PUSH1 0x40 DUP3 DUP7 ADD ADD MSTORE PUSH1 0x40 PUSH1 0x1F NOT PUSH1 0x1F DUP4 ADD AND DUP6 ADD ADD SWAP3 POP POP POP SWAP3 SWAP2 POP POP JUMP JUMPDEST PUSH1 0x0 DUP1 PUSH1 0x0 PUSH1 0x40 DUP5 DUP7 SUB SLT ISZERO PUSH2 0xB10 JUMPI PUSH1 0x0 DUP1 REVERT JUMPDEST PUSH2 0xB19 DUP5 PUSH2 0xA6B JUMP JUMPDEST SWAP3 POP PUSH1 0x20 DUP5 ADD CALLDATALOAD PUSH8 0xFFFFFFFFFFFFFFFF DUP1 DUP3 GT ISZERO PUSH2 0xB36 JUMPI PUSH1 0x0 DUP1 REVERT JUMPDEST DUP2 DUP7 ADD SWAP2 POP DUP7 PUSH1 0x1F DUP4 ADD SLT PUSH2 0xB4A JUMPI PUSH1 0x0 DUP1 REVERT JUMPDEST DUP2 CALLDATALOAD DUP2 DUP2 GT ISZERO PUSH2 0xB59 JUMPI PUSH1 0x0 DUP1 REVERT JUMPDEST DUP8 PUSH1 0x20 DUP3 DUP6 ADD ADD GT ISZERO PUSH2 0xB6B JUMPI PUSH1 0x0 DUP1 REVERT JUMPDEST PUSH1 0x20 DUP4 ADD SWAP5 POP DUP1 SWAP4 POP POP POP POP SWAP3 POP SWAP3 POP SWAP3 JUMP JUMPDEST PUSH1 0x0 DUP1 PUSH1 0x0 PUSH1 0x60 DUP5 DUP7 SUB SLT ISZERO PUSH2 0xB93 JUMPI PUSH1 0x0 DUP1 REVERT JUMPDEST PUSH2 0xB9C DUP5 PUSH2 0xA4F JUMP JUMPDEST SWAP3 POP PUSH2 0xBAA PUSH1 0x20 DUP6 ADD PUSH2 0xA4F JUMP JUMPDEST SWAP2 POP PUSH2 0xBB8 PUSH1 0x40 DUP6 ADD PUSH2 0xA6B JUMP JUMPDEST SWAP1 POP SWAP3 POP SWAP3 POP SWAP3 JUMP JUMPDEST PUSH1 0x0 PUSH1 0x20 DUP3 DUP5 SUB SLT ISZERO PUSH2 0xBD3 JUMPI PUSH1 0x0 DUP1 REVERT JUMPDEST PUSH2 0xBDC DUP3 PUSH2 0xA4F JUMP JUMPDEST SWAP4 SWAP3 POP POP POP JUMP JUMPDEST PUSH4 0x4E487B71 PUSH1 0xE0 SHL PUSH1 0x0 MSTORE PUSH1 0x21 PUSH1 0x4 MSTORE PUSH1 0x24 PUSH1 0x0 REVERT JUMPDEST PUSH1 0x20 DUP1 DUP3 MSTORE DUP3 MLOAD DUP3 DUP3 ADD DUP2 SWAP1 MSTORE PUSH1 0x0 SWAP2 SWAP1 DUP5 DUP3 ADD SWAP1 PUSH1 0x40 DUP6 ADD SWAP1 DUP5 DUP1 JUMPDEST DUP3 DUP2 LT ISZERO PUSH2 0xC4E JUMPI DUP5 MLOAD PUSH1 0x6 DUP2 LT PUSH2 0xC3C JUMPI PUSH4 0x4E487B71 PUSH1 0xE0 SHL DUP4 MSTORE PUSH1 0x21 PUSH1 0x4 MSTORE PUSH1 0x24 DUP4 REVERT JUMPDEST DUP5 MSTORE SWAP4 DUP6 ADD SWAP4 SWAP3 DUP6 ADD SWAP3 PUSH1 0x1 ADD PUSH2 0xC16 JUMP JUMPDEST POP SWAP2 SWAP8 SWAP7 POP POP POP POP POP POP POP JUMP JUMPDEST PUSH1 0x1 DUP2 DUP2 SHR SWAP1 DUP3 AND DUP1 PUSH2 0xC6F JUMPI PUSH1 0x7F DUP3 AND SWAP2 POP JUMPDEST PUSH1 0x20 DUP3 LT DUP2 SUB PUSH2 0xC8F JUMPI PUSH4 0x4E487B71 PUSH1 0xE0 SHL PUSH1 0x0 MSTORE PUSH1 0x22 PUSH1 0x4 MSTORE PUSH1 0x24 PUSH1 0x0 REVERT JUMPDEST POP SWAP2 SWAP1 POP JUMP JUMPDEST PUSH4 0x4E487B71 PUSH1 0xE0 SHL PUSH1 0x0 MSTORE PUSH1 0x41 PUSH1 0x4 MSTORE PUSH1 0x24 PUSH1 0x0 REVERT JUMPDEST PUSH1 0x1F DUP3 GT ISZERO PUSH2 0xCF5 JUMPI PUSH1 0x0 DUP2 DUP2 MSTORE PUSH1 0x20 DUP2 KECCAK256 PUSH1 0x1F DUP6 ADD PUSH1 0x5 SHR DUP2 ADD PUSH1 0x20 DUP7 LT ISZERO PUSH2 0xCD2 JUMPI POP DUP1 JUMPDEST PUSH1 0x1F DUP6 ADD PUSH1 0x5 SHR DUP3 ADD SWAP2 POP JUMPDEST DUP2 DUP2 LT ISZERO PUSH2 0xCF1 JUMPI DUP3 DUP2 SSTORE PUSH1 0x1 ADD PUSH2 0xCDE JUMP JUMPDEST POP POP POP JUMPDEST POP POP POP JUMP JUMPDEST DUP2 MLOAD PUSH8 0xFFFFFFFFFFFFFFFF DUP2 GT ISZERO PUSH2 0xD14 JUMPI PUSH2 0xD14 PUSH2 0xC95 JUMP JUMPDEST PUSH2 0xD28 DUP2 PUSH2 0xD22 DUP5 SLOAD PUSH2 0xC5B JUMP JUMPDEST DUP5 PUSH2 0xCAB JUMP JUMPDEST PUSH1 0x20 DUP1 PUSH1 0x1F DUP4 GT PUSH1 0x1 DUP2 EQ PUSH2 0xD5D JUMPI PUSH1 0x0 DUP5 ISZERO PUSH2 0xD45 JUMPI POP DUP6 DUP4 ADD MLOAD JUMPDEST PUSH1 0x0 NOT PUSH1 0x3 DUP7 SWAP1 SHL SHR NOT AND PUSH1 0x1 DUP6 SWAP1 SHL OR DUP6 SSTORE PUSH2 0xCF1 JUMP JUMPDEST PUSH1 0x0 DUP6 DUP2 MSTORE PUSH1 0x20 DUP2 KECCAK256 PUSH1 0x1F NOT DUP7 AND SWAP2 JUMPDEST DUP3 DUP2 LT ISZERO PUSH2 0xD8C JUMPI DUP9 DUP7 ADD MLOAD DUP3 SSTORE SWAP5 DUP5 ADD SWAP5 PUSH1 0x1 SWAP1 SWAP2 ADD SWAP1 DUP5 ADD PUSH2 0xD6D JUMP JUMPDEST POP DUP6 DUP3 LT ISZERO PUSH2 0xDAA JUMPI DUP8 DUP6 ADD MLOAD PUSH1 0x0 NOT PUSH1 0x3 DUP9 SWAP1 SHL PUSH1 0xF8 AND SHR NOT AND DUP2 SSTORE JUMPDEST POP POP POP POP POP PUSH1 0x1 SWAP1 DUP2 SHL ADD SWAP1 SSTORE POP JUMP INVALID LOG2 PUSH5 0x6970667358 0x22 SLT KECCAK256 PUSH28 0x81C8A9651EBA44CC26CFBC39CE18E30D560A60DFFE1E0983219FE09 PUSH28 0xC5D764736F6C63430008130033000000000000000000000000000000 "},"methodIdentifiers":{"getContentKey(address,uint8)":"08a1e237","getUserCategories(address)":"e41689cb","grantAccess(address,uint8)":"87ed1bd0","hasData(address,uint8)":"ae4d5f12","isApproved(address,address,uint8)":"cf683677","revokeAccess(address,uint8)":"6f925535","uploadData(uint8,string)":"c929a3a8"}}}}}