{"abi":[{"type":"constructor","inputs":[],"stateMutability":"nonpayable"},{"type":"function","name":"balances","inputs":[{"name":"","type":"bytes32","internalType":"bytes32"}],"outputs":[{"name":"","type":"uint256","internalType":"uint256"}],"stateMutability":"view"},{"type":"function","name":"batchDeduct","inputs":[{"name":"identifiers","type":"bytes32[]","internalType":"bytes32[]"},{"name":"bytesUsed","type":"uint256[]","internalType":"uint256[]"}],"outputs":[],"stateMutability":"nonpayable"},{"type":"function","name":"createIdentifier","inputs":[],"outputs":[{"name":"","type":"bytes32","internalType":"bytes32"}],"stateMutability":"nonpayable"},{"type":"function","name":"getBalance","inputs":[{"name":"identifier","type":"bytes32","internalType":"bytes32"}],"outputs":[{"name":"","type":"uint256","internalType":"uint256"}],"stateMutability":"view"},{"type":"function","name":"getIdentifierOwner","inputs":[{"name":"identifier","type":"bytes32","internalType":"bytes32"}],"outputs":[{"name":"","type":"address","internalType":"address"}],"stateMutability":"view"},{"type":"function","name":"getProxyRewards","inputs":[{"name":"proxy","type":"address","internalType":"address"}],"outputs":[{"name":"","type":"uint256","internalType":"uint256"}],"stateMutability":"view"},{"type":"function","name":"getUserIdentifierAt","inputs":[{"name":"user","type":"address","internalType":"address"},{"name":"index","type":"uint256","internalType":"uint256"}],"outputs":[{"name":"","type":"bytes32","internalType":"bytes32"}],"stateMutability":"view"},{"type":"function","name":"getUserIdentifierCount","inputs":[{"name":"user","type":"address","internalType":"address"}],"outputs":[{"name":"","type":"uint256","internalType":"uint256"}],"stateMutability":"view"},{"type":"function","name":"getUserIdentifiers","inputs":[{"name":"user","type":"address","internalType":"address"}],"outputs":[{"name":"","type":"bytes32[]","internalType":"bytes32[]"}],"stateMutability":"view"},{"type":"function","name":"identifierOwners","inputs":[{"name":"","type":"bytes32","internalType":"bytes32"}],"outputs":[{"name":"","type":"address","internalType":"address"}],"stateMutability":"view"},{"type":"function","name":"initialize","inputs":[{"name":"_owner","type":"address","internalType":"address"},{"name":"_pricePerGB","type":"uint256","internalType":"uint256"}],"outputs":[],"stateMutability":"nonpayable"},{"type":"function","name":"isProxy","inputs":[{"name":"","type":"address","internalType":"address"}],"outputs":[{"name":"","type":"bool","internalType":"bool"}],"stateMutability":"view"},{"type":"function","name":"owner","inputs":[],"outputs":[{"name":"","type":"address","internalType":"address"}],"stateMutability":"view"},{"type":"function","name":"pricePerGB","inputs":[],"outputs":[{"name":"","type":"uint256","internalType":"uint256"}],"stateMutability":"view"},{"type":"function","name":"proxiableUUID","inputs":[],"outputs":[{"name":"","type":"bytes32","internalType":"bytes32"}],"stateMutability":"view"},{"type":"function","name":"proxyRewards","inputs":[{"name":"","type":"address","internalType":"address"}],"outputs":[{"name":"","type":"uint256","internalType":"uint256"}],"stateMutability":"view"},{"type":"function","name":"setPricePerGB","inputs":[{"name":"newPrice","type":"uint256","internalType":"uint256"}],"outputs":[],"stateMutability":"nonpayable"},{"type":"function","name":"setProxy","inputs":[{"name":"proxy","type":"address","internalType":"address"},{"name":"authorized","type":"bool","internalType":"bool"}],"outputs":[],"stateMutability":"nonpayable"},{"type":"function","name":"topup","inputs":[{"name":"identifier","type":"bytes32","internalType":"bytes32"}],"outputs":[],"stateMutability":"payable"},{"type":"function","name":"transferIdentifier","inputs":[{"name":"identifier","type":"bytes32","internalType":"bytes32"},{"name":"to","type":"address","internalType":"address"}],"outputs":[],"stateMutability":"nonpayable"},{"type":"function","name":"upgradeTo","inputs":[{"name":"newImplementation","type":"address","internalType":"address"}],"outputs":[],"stateMutability":"nonpayable"},{"type":"function","name":"upgradeToAndCall","inputs":[{"name":"newImplementation","type":"address","internalType":"address"},{"name":"data","type":"bytes","internalType":"bytes"}],"outputs":[],"stateMutability":"payable"},{"type":"function","name":"userIdentifiers","inputs":[{"name":"","type":"address","internalType":"address"},{"name":"","type":"uint256","internalType":"uint256"}],"outputs":[{"name":"","type":"bytes32","internalType":"bytes32"}],"stateMutability":"view"},{"type":"function","name":"withdrawRewards","inputs":[],"outputs":[],"stateMutability":"nonpayable"},{"type":"event","name":"AdminChanged","inputs":[{"name":"previousAdmin","type":"address","indexed":false,"internalType":"address"},{"name":"newAdmin","type":"address","indexed":false,"internalType":"address"}],"anonymous":false},{"type":"event","name":"BatchDeduct","inputs":[{"name":"identifiers","type":"bytes32[]","indexed":false,"internalType":"bytes32[]"},{"name":"bytesUsed","type":"uint256[]","indexed":false,"internalType":"uint256[]"}],"anonymous":false},{"type":"event","name":"BeaconUpgraded","inputs":[{"name":"beacon","type":"address","indexed":true,"internalType":"address"}],"anonymous":false},{"type":"event","name":"IdentifierCreated","inputs":[{"name":"owner","type":"address","indexed":true,"internalType":"address"},{"name":"identifier","type":"bytes32","indexed":true,"internalType":"bytes32"}],"anonymous":false},{"type":"event","name":"IdentifierTransfer","inputs":[{"name":"identifier","type":"bytes32","indexed":true,"internalType":"bytes32"},{"name":"from","type":"address","indexed":true,"internalType":"address"},{"name":"to","type":"address","indexed":true,"internalType":"address"}],"anonymous":false},{"type":"event","name":"Initialized","inputs":[{"name":"owner","type":"address","indexed":false,"internalType":"address"},{"name":"pricePerGB","type":"uint256","indexed":false,"internalType":"uint256"}],"anonymous":false},{"type":"event","name":"Initialized","inputs":[{"name":"version","type":"uint8","indexed":false,"internalType":"uint8"}],"anonymous":false},{"type":"event","name":"PriceUpdate","inputs":[{"name":"oldPrice","type":"uint256","indexed":false,"internalType":"uint256"},{"name":"newPrice","type":"uint256","indexed":false,"internalType":"uint256"}],"anonymous":false},{"type":"event","name":"RewardsWithdrawn","inputs":[{"name":"proxy","type":"address","indexed":true,"internalType":"address"},{"name":"amount","type":"uint256","indexed":false,"internalType":"uint256"}],"anonymous":false},{"type":"event","name":"TopUp","inputs":[{"name":"from","type":"address","indexed":true,"internalType":"address"},{"name":"identifier","type":"bytes32","indexed":true,"internalType":"bytes32"},{"name":"amount","type":"uint256","indexed":false,"internalType":"uint256"}],"anonymous":false},{"type":"event","name":"Upgraded","inputs":[{"name":"implementation","type":"address","indexed":true,"internalType":"address"}],"anonymous":false},{"type":"error","name":"ArrayLengthMismatch","inputs":[]},{"type":"error","name":"InsufficientBalance","inputs":[]},{"type":"error","name":"InvalidAddress","inputs":[]},{"type":"error","name":"InvalidAmount","inputs":[]},{"type":"error","name":"NoIdentifier","inputs":[]},{"type":"error","name":"NotIdentifierOwner","inputs":[]},{"type":"error","name":"TransferFailed","inputs":[]},{"type":"error","name":"Unauthorized","inputs":[]},{"type":"error","name":"ZeroAddress","inputs":[]}],"bytecode":{"object":"0x60a06040523060805234801561001457600080fd5b5061001d610022565b6100e1565b600054610100900460ff161561008e5760405162461bcd60e51b815260206004820152602760248201527f496e697469616c697a61626c653a20636f6e747261637420697320696e697469604482015266616c697a696e6760c81b606482015260840160405180910390fd5b60005460ff908116146100df576000805460ff191660ff9081179091556040519081527f7f26b83ff96e1f2b6a682f133852f6798a09c465da95921460cefb38474024989060200160405180910390a15b565b608051611ac1610118600039600081816105e801528181610631015281816106d001528181610710015261081f0152611ac16000f3fe60806040526004361061014b5760003560e01c80638da5cb5b116100b6578063cd6dc6871161006f578063cd6dc68714610403578063d4284d2714610423578063d56cc9fc14610443578063e35ce0bb14610479578063e9af001f14610499578063ffeb7561146104ae57600080fd5b80638da5cb5b146103275780638e739461146103475780639c65d66714610374578063af3a312d146103a1578063b7f12f26146103c1578063c7b8981c146103ee57600080fd5b80634f1ef286116101085780634f1ef2861461025c57806351a39a581461026f57806352d1902d1461028f5780636289ea64146102a457806383e9724a146102c45780638909aa3f146102fa57600080fd5b80631cf308411461015057806329710388146101795780632bc73c06146101b957806330433e33146101ce57806335fe94ee1461021c5780633659cfe61461023c575b600080fd5b34801561015c57600080fd5b50610166606a5481565b6040519081526020015b60405180910390f35b34801561018557600080fd5b506101a9610194366004611568565b60686020526000908152604090205460ff1681565b6040519015158152602001610170565b6101cc6101c7366004611583565b6104e4565b005b3480156101da57600080fd5b506102046101e9366004611583565b6000908152606660205260409020546001600160a01b031690565b6040516001600160a01b039091168152602001610170565b34801561022857600080fd5b5061016661023736600461159c565b6105ad565b34801561024857600080fd5b506101cc610257366004611568565b6105de565b6101cc61026a3660046115dc565b6106c6565b34801561027b57600080fd5b506101cc61028a36600461169e565b610796565b34801561029b57600080fd5b50610166610812565b3480156102b057600080fd5b506101cc6102bf3660046116da565b6108c5565b3480156102d057600080fd5b506101666102df366004611568565b6001600160a01b031660009081526067602052604090205490565b34801561030657600080fd5b50610166610315366004611583565b60656020526000908152604090205481565b34801561033357600080fd5b50606b54610204906001600160a01b031681565b34801561035357600080fd5b50610166610362366004611583565b60009081526065602052604090205490565b34801561038057600080fd5b5061039461038f366004611568565b610a5f565b6040516101709190611706565b3480156103ad57600080fd5b506101666103bc36600461159c565b610acb565b3480156103cd57600080fd5b506101666103dc366004611568565b60696020526000908152604090205481565b3480156103fa57600080fd5b506101cc610b66565b34801561040f57600080fd5b506101cc61041e36600461159c565b610c77565b34801561042f57600080fd5b506101cc61043e366004611796565b610e33565b34801561044f57600080fd5b5061020461045e366004611583565b6066602052600090815260409020546001600160a01b031681565b34801561048557600080fd5b506101cc610494366004611583565b610fde565b3480156104a557600080fd5b5061016661106e565b3480156104ba57600080fd5b506101666104c9366004611568565b6001600160a01b031660009081526069602052604090205490565b346000036105055760405163162908e360e11b815260040160405180910390fd5b806105195761051261106e565b9050610550565b6000818152606660205260409020546001600160a01b03163314610550576040516308baca6360e41b815260040160405180910390fd5b6000818152606560205260408120805434929061056e908490611818565b9091555050604051348152819033907fea2cc5695dc559d82fa71cb78973fb4c48532b3ec451e3cd5e8a7f26901ba96b9060200160405180910390a350565b606760205281600052604060002081815481106105c957600080fd5b90600052602060002001600091509150505481565b6001600160a01b037f000000000000000000000000000000000000000000000000000000000000000016300361062f5760405162461bcd60e51b81526004016106269061182b565b60405180910390fd5b7f00000000000000000000000000000000000000000000000000000000000000006001600160a01b0316610678600080516020611a45833981519152546001600160a01b031690565b6001600160a01b03161461069e5760405162461bcd60e51b815260040161062690611877565b6106a7816110f4565b604080516000808252602082019092526106c39183919061111e565b50565b6001600160a01b037f000000000000000000000000000000000000000000000000000000000000000016300361070e5760405162461bcd60e51b81526004016106269061182b565b7f00000000000000000000000000000000000000000000000000000000000000006001600160a01b0316610757600080516020611a45833981519152546001600160a01b031690565b6001600160a01b03161461077d5760405162461bcd60e51b815260040161062690611877565b610786826110f4565b6107928282600161111e565b5050565b606b546001600160a01b031633146107c0576040516282b42960e81b815260040160405180910390fd5b6001600160a01b0382166107e75760405163d92e233d60e01b815260040160405180910390fd5b6001600160a01b03919091166000908152606860205260409020805460ff1916911515919091179055565b6000306001600160a01b037f000000000000000000000000000000000000000000000000000000000000000016146108b25760405162461bcd60e51b815260206004820152603860248201527f555550535570677261646561626c653a206d757374206e6f742062652063616c60448201527f6c6564207468726f7567682064656c656761746563616c6c00000000000000006064820152608401610626565b50600080516020611a4583398151915290565b6000828152606660205260409020546001600160a01b031633146108fc576040516308baca6360e41b815260040160405180910390fd5b6001600160a01b0381166109235760405163d92e233d60e01b815260040160405180910390fd5b336000908152606760205260408120905b81548110156109e85783828281548110610950576109506118c3565b9060005260206000200154036109d65781548290610970906001906118d9565b81548110610980576109806118c3565b906000526020600020015482828154811061099d5761099d6118c3565b9060005260206000200181905550818054806109bb576109bb6118ec565b600190038181906000526020600020016000905590556109e8565b806109e081611902565b915050610934565b506001600160a01b0382166000818152606760209081526040808320805460018101825590845282842001879055868352606690915280822080546001600160a01b0319168417905551339186917f488d8edd8c226bb2be5387f47cc947711499bfce8fe52bb568d24ab5048ef4489190a4505050565b6001600160a01b038116600090815260676020908152604091829020805483518184028101840190945280845260609392830182828015610abf57602002820191906000526020600020905b815481526020019060010190808311610aab575b50505050509050919050565b6001600160a01b0382166000908152606760205260408120548210610b285760405162461bcd60e51b8152602060048201526013602482015272496e646578206f7574206f6620626f756e647360681b6044820152606401610626565b6001600160a01b0383166000908152606760205260409020805483908110610b5257610b526118c3565b906000526020600020015490505b92915050565b3360009081526068602052604090205460ff16610b95576040516282b42960e81b815260040160405180910390fd5b3360009081526069602052604081205490819003610bc65760405163162908e360e11b815260040160405180910390fd5b336000818152606960205260408082208290555190919083908381818185875af1925050503d8060008114610c17576040519150601f19603f3d011682016040523d82523d6000602084013e610c1c565b606091505b5050905080610c3e576040516312171d8360e31b815260040160405180910390fd5b60405182815233907f8a43c4352486ec339f487f64af78ca5cbf06cd47833f073d3baf3a193e5031619060200160405180910390a25050565b600054610100900460ff1615808015610c975750600054600160ff909116105b80610cb15750303b158015610cb1575060005460ff166001145b610d145760405162461bcd60e51b815260206004820152602e60248201527f496e697469616c697a61626c653a20636f6e747261637420697320616c72656160448201526d191e481a5b9a5d1a585b1a5e995960921b6064820152608401610626565b6000805460ff191660011790558015610d37576000805461ff0019166101001790555b6001600160a01b038316610d5e5760405163d92e233d60e01b815260040160405180910390fd5b81600003610d7f5760405163162908e360e11b815260040160405180910390fd5b610d87611289565b606b80546001600160a01b0319166001600160a01b038516908117909155606a8390556001606c5560408051918252602082018490527f25ff68dd81b34665b5ba7e553ee5511bf6812e12adb4a7e2c0d9e26b3099ce79910160405180910390a18015610e2e576000805461ff0019169055604051600181527f7f26b83ff96e1f2b6a682f133852f6798a09c465da95921460cefb38474024989060200160405180910390a15b505050565b3360009081526068602052604090205460ff16610e62576040516282b42960e81b815260040160405180910390fd5b828114610e825760405163512509d360e11b815260040160405180910390fd5b6000805b84811015610f745760006340000000606a54868685818110610eaa57610eaa6118c3565b90506020020135610ebb919061191b565b610ec59190611932565b90508060656000898986818110610ede57610ede6118c3565b905060200201358152602001908152602001600020541015610f1357604051631e9acf1760e31b815260040160405180910390fd5b8060656000898986818110610f2a57610f2a6118c3565b9050602002013581526020019081526020016000206000828254610f4e91906118d9565b90915550610f5e90508184611818565b9250508080610f6c90611902565b915050610e86565b503360009081526069602052604081208054839290610f94908490611818565b90915550506040517f95c47b4d1e02d4dabb621aebe7d32cb836a3add7ea736ec8940515d7d2e4ff5490610fcf908790879087908790611986565b60405180910390a15050505050565b606b546001600160a01b03163314611008576040516282b42960e81b815260040160405180910390fd5b806000036110295760405163162908e360e11b815260040160405180910390fd5b606a80549082905560408051828152602081018490527f92664190cca12aca9cd5309d87194bdda75bb51362d71c06e1a6f75c7c765711910160405180910390a15050565b606c80546000918291908261108283611902565b90915550336000818152606760209081526040808320805460018101825590845282842001859055848352606690915280822080546001600160a01b031916841790555192935083927f1955e31a47520cb5353f8c2b04c3bf2d8dd6cf0fbe5d983ed8040e69c665fb889190a3919050565b606b546001600160a01b031633146106c3576040516282b42960e81b815260040160405180910390fd5b7f4910fdfa16fed3260ed0e7147f7cc6da11a60208b5b9406d12a635614ffd91435460ff161561115157610e2e836112f6565b826001600160a01b03166352d1902d6040518163ffffffff1660e01b8152600401602060405180830381865afa9250505080156111ab575060408051601f3d908101601f191682019092526111a8918101906119b8565b60015b61120e5760405162461bcd60e51b815260206004820152602e60248201527f45524331393637557067726164653a206e657720696d706c656d656e7461746960448201526d6f6e206973206e6f74205555505360901b6064820152608401610626565b600080516020611a45833981519152811461127d5760405162461bcd60e51b815260206004820152602960248201527f45524331393637557067726164653a20756e737570706f727465642070726f786044820152681a58589b195555525160ba1b6064820152608401610626565b50610e2e838383611392565b600054610100900460ff166112f45760405162461bcd60e51b815260206004820152602b60248201527f496e697469616c697a61626c653a20636f6e7472616374206973206e6f74206960448201526a6e697469616c697a696e6760a81b6064820152608401610626565b565b6001600160a01b0381163b6113635760405162461bcd60e51b815260206004820152602d60248201527f455243313936373a206e657720696d706c656d656e746174696f6e206973206e60448201526c1bdd08184818dbdb9d1c9858dd609a1b6064820152608401610626565b600080516020611a4583398151915280546001600160a01b0319166001600160a01b0392909216919091179055565b61139b836113bd565b6000825111806113a85750805b15610e2e576113b783836113fd565b50505050565b6113c6816112f6565b6040516001600160a01b038216907fbc7cd75a20ee27fd9adebab32041f755214dbc6bffa90cc0225b39da2e5c2d3b90600090a250565b60606114228383604051806060016040528060278152602001611a6560279139611429565b9392505050565b6060600080856001600160a01b03168560405161144691906119f5565b600060405180830381855af49150503d8060008114611481576040519150601f19603f3d011682016040523d82523d6000602084013e611486565b606091505b5091509150611497868383876114a1565b9695505050505050565b60608315611510578251600003611509576001600160a01b0385163b6115095760405162461bcd60e51b815260206004820152601d60248201527f416464726573733a2063616c6c20746f206e6f6e2d636f6e74726163740000006044820152606401610626565b508161151a565b61151a8383611522565b949350505050565b8151156115325781518083602001fd5b8060405162461bcd60e51b81526004016106269190611a11565b80356001600160a01b038116811461156357600080fd5b919050565b60006020828403121561157a57600080fd5b6114228261154c565b60006020828403121561159557600080fd5b5035919050565b600080604083850312156115af57600080fd5b6115b88361154c565b946020939093013593505050565b634e487b7160e01b600052604160045260246000fd5b600080604083850312156115ef57600080fd5b6115f88361154c565b9150602083013567ffffffffffffffff8082111561161557600080fd5b818501915085601f83011261162957600080fd5b81358181111561163b5761163b6115c6565b604051601f8201601f19908116603f01168101908382118183101715611663576116636115c6565b8160405282815288602084870101111561167c57600080fd5b8260208601602083013760006020848301015280955050505050509250929050565b600080604083850312156116b157600080fd5b6116ba8361154c565b9150602083013580151581146116cf57600080fd5b809150509250929050565b600080604083850312156116ed57600080fd5b823591506116fd6020840161154c565b90509250929050565b6020808252825182820181905260009190848201906040850190845b8181101561173e57835183529284019291840191600101611722565b50909695505050505050565b60008083601f84011261175c57600080fd5b50813567ffffffffffffffff81111561177457600080fd5b6020830191508360208260051b850101111561178f57600080fd5b9250929050565b600080600080604085870312156117ac57600080fd5b843567ffffffffffffffff808211156117c457600080fd5b6117d08883890161174a565b909650945060208701359150808211156117e957600080fd5b506117f68782880161174a565b95989497509550505050565b634e487b7160e01b600052601160045260246000fd5b80820180821115610b6057610b60611802565b6020808252602c908201527f46756e6374696f6e206d7573742062652063616c6c6564207468726f7567682060408201526b19195b1959d85d1958d85b1b60a21b606082015260800190565b6020808252602c908201527f46756e6374696f6e206d7573742062652063616c6c6564207468726f7567682060408201526b6163746976652070726f787960a01b606082015260800190565b634e487b7160e01b600052603260045260246000fd5b81810381811115610b6057610b60611802565b634e487b7160e01b600052603160045260246000fd5b60006001820161191457611914611802565b5060010190565b8082028115828204841417610b6057610b60611802565b60008261194f57634e487b7160e01b600052601260045260246000fd5b500490565b81835260006001600160fb1b0383111561196d57600080fd5b8260051b80836020870137939093016020019392505050565b60408152600061199a604083018688611954565b82810360208401526119ad818587611954565b979650505050505050565b6000602082840312156119ca57600080fd5b5051919050565b60005b838110156119ec5781810151838201526020016119d4565b50506000910152565b60008251611a078184602087016119d1565b9190910192915050565b6020815260008251806020840152611a308160408501602087016119d1565b601f01601f1916919091016040019291505056fe360894a13ba1a3210667c828492db98dca3e2076cc3735a920a3ca505d382bbc416464726573733a206c6f772d6c6576656c2064656c65676174652063616c6c206661696c6564a26469706673582212203de3c74340dfcc3692ec03df7309c5097cf5811f3a65f7c32126d95c330fd32b64736f6c63430008130033","linkReferences":{}},"methodIdentifiers":{"balances(bytes32)":"8909aa3f","batchDeduct(bytes32[],uint256[])":"d4284d27","createIdentifier()":"e9af001f","getBalance(bytes32)":"8e739461","getIdentifierOwner(bytes32)":"30433e33","getProxyRewards(address)":"ffeb7561","getUserIdentifierAt(address,uint256)":"af3a312d","getUserIdentifierCount(address)":"83e9724a","getUserIdentifiers(address)":"9c65d667","identifierOwners(bytes32)":"d56cc9fc","initialize(address,uint256)":"cd6dc687","isProxy(address)":"29710388","owner()":"8da5cb5b","pricePerGB()":"1cf30841","proxiableUUID()":"52d1902d","proxyRewards(address)":"b7f12f26","setPricePerGB(uint256)":"e35ce0bb","setProxy(address,bool)":"51a39a58","topup(bytes32)":"2bc73c06","transferIdentifier(bytes32,address)":"6289ea64","upgradeTo(address)":"3659cfe6","upgradeToAndCall(address,bytes)":"4f1ef286","userIdentifiers(address,uint256)":"35fe94ee","withdrawRewards()":"c7b8981c"},"id":37}