{
  "_format": "hh-sol-artifact-1",
  "contractName": "PersonalDataRegistry",
  "sourceName": "contracts/PersonalDataRegistry.sol",
  "abi": [
    {
      "anonymous": false,
      "inputs": [
        {
          "indexed": true,
          "internalType": "address",
          "name": "owner",
          "type": "address"
        },
        {
          "indexed": true,
          "internalType": "address",
          "name": "viewer",
          "type": "address"
        },
        {
          "indexed": true,
          "internalType": "enum PersonalDataRegistry.DataCategory",
          "name": "category",
          "type": "uint8"
        }
      ],
      "name": "AccessGranted",
      "type": "event"
    },
    {
      "anonymous": false,
      "inputs": [
        {
          "indexed": true,
          "internalType": "address",
          "name": "owner",
          "type": "address"
        },
        {
          "indexed": true,
          "internalType": "address",
          "name": "viewer",
          "type": "address"
        },
        {
          "indexed": true,
          "internalType": "enum PersonalDataRegistry.DataCategory",
          "name": "category",
          "type": "uint8"
        }
      ],
      "name": "AccessRevoked",
      "type": "event"
    },
    {
      "anonymous": false,
      "inputs": [
        {
          "indexed": true,
          "internalType": "address",
          "name": "owner",
          "type": "address"
        },
        {
          "indexed": true,
          "internalType": "enum PersonalDataRegistry.DataCategory",
          "name": "category",
          "type": "uint8"
        },
        {
          "indexed": false,
          "internalType": "uint256",
          "name": "timestamp",
          "type": "uint256"
        }
      ],
      "name": "DataUploaded",
      "type": "event"
    },
    {
      "inputs": [
        {
          "internalType": "address",
          "name": "owner",
          "type": "address"
        },
        {
          "internalType": "enum PersonalDataRegistry.DataCategory",
          "name": "category",
          "type": "uint8"
        }
      ],
      "name": "getContentKey",
      "outputs": [
        {
          "internalType": "string",
          "name": "",
          "type": "string"
        }
      ],
      "stateMutability": "view",
      "type": "function"
    },
    {
      "inputs": [
        {
          "internalType": "address",
          "name": "user",
          "type": "address"
        }
      ],
      "name": "getUserCategories",
      "outputs": [
        {
          "internalType": "enum PersonalDataRegistry.DataCategory[]",
          "name": "",
          "type": "uint8[]"
        }
      ],
      "stateMutability": "view",
      "type": "function"
    },
    {
      "inputs": [
        {
          "internalType": "address",
          "name": "viewer",
          "type": "address"
        },
        {
          "internalType": "enum PersonalDataRegistry.DataCategory",
          "name": "category",
          "type": "uint8"
        }
      ],
      "name": "grantAccess",
      "outputs": [],
      "stateMutability": "nonpayable",
      "type": "function"
    },
    {
      "inputs": [
        {
          "internalType": "address",
          "name": "user",
          "type": "address"
        },
        {
          "internalType": "enum PersonalDataRegistry.DataCategory",
          "name": "category",
          "type": "uint8"
        }
      ],
      "name": "hasData",
      "outputs": [
        {
          "internalType": "bool",
          "name": "",
          "type": "bool"
        }
      ],
      "stateMutability": "view",
      "type": "function"
    },
    {
      "inputs": [
        {
          "internalType": "address",
          "name": "owner",
          "type": "address"
        },
        {
          "internalType": "address",
          "name": "viewer",
          "type": "address"
        },
        {
          "internalType": "enum PersonalDataRegistry.DataCategory",
          "name": "category",
          "type": "uint8"
        }
      ],
      "name": "isApproved",
      "outputs": [
        {
          "internalType": "bool",
          "name": "",
          "type": "bool"
        }
      ],
      "stateMutability": "view",
      "type": "function"
    },
    {
      "inputs": [
        {
          "internalType": "address",
          "name": "viewer",
          "type": "address"
        },
        {
          "internalType": "enum PersonalDataRegistry.DataCategory",
          "name": "category",
          "type": "uint8"
        }
      ],
      "name": "revokeAccess",
      "outputs": [],
      "stateMutability": "nonpayable",
      "type": "function"
    },
    {
      "inputs": [
        {
          "internalType": "enum PersonalDataRegistry.DataCategory",
          "name": "category",
          "type": "uint8"
        },
        {
          "internalType": "string",
          "name": "contentKey",
          "type": "string"
        }
      ],
      "name": "uploadData",
      "outputs": [],
      "stateMutability": "nonpayable",
      "type": "function"
    }
  ],
  "bytecode": "0x608060405234801561001057600080fd5b50610df0806100206000396000f3fe608060405234801561001057600080fd5b506004361061007d5760003560e01c8063ae4d5f121161005b578063ae4d5f12146100d3578063c929a3a8146100f6578063cf68367714610109578063e41689cb1461011c57600080fd5b806308a1e237146100825780636f925535146100ab57806387ed1bd0146100c0575b600080fd5b610095610090366004610a7a565b61013c565b6040516100a29190610aad565b60405180910390f35b6100be6100b9366004610a7a565b610378565b005b6100be6100ce366004610a7a565b6104c4565b6100e66100e1366004610a7a565b6106aa565b60405190151581526020016100a2565b6100be610104366004610afb565b610704565b6100e6610117366004610b7e565b610944565b61012f61012a366004610bc1565b6109b3565b6040516100a29190610bf9565b6060336001600160a01b03841614806101ae57506001600160a01b03831660009081526001602052604081209083600581111561017b5761017b610be3565b600581111561018c5761018c610be3565b81526020808201929092526040908101600090812033825290925290205460ff165b6101ff5760405162461bcd60e51b815260206004820181905260248201527f4e6f7420617574686f72697a656420746f20766965772074686973206461746160448201526064015b60405180910390fd5b6001600160a01b03831660009081526020819052604081209083600581111561022a5761022a610be3565b600581111561023b5761023b610be3565b815260208101919091526040016000206003015460ff1661029a5760405162461bcd60e51b81526020600482015260196024820152784e6f206461746120666f7220746869732063617465676f727960381b60448201526064016101f6565b6001600160a01b0383166000908152602081905260408120908360058111156102c5576102c5610be3565b60058111156102d6576102d6610be3565b815260200190815260200160002060010180546102f290610c5b565b80601f016020809104026020016040519081016040528092919081815260200182805461031e90610c5b565b801561036b5780601f106103405761010080835404028352916020019161036b565b820191906000526020600020905b81548152906001019060200180831161034e57829003601f168201915b5050505050905092915050565b3360009081526001602052604081209082600581111561039a5761039a610be3565b60058111156103ab576103ab610be3565b8152602080820192909252604090810160009081206001600160a01b038616825290925290205460ff166104105760405162461bcd60e51b815260206004820152600c60248201526b139bdd08185c1c1c9bdd995960a21b60448201526064016101f6565b3360009081526001602052604081208183600581111561043257610432610be3565b600581111561044357610443610be3565b8152602080820192909252604090810160009081206001600160a01b03871682529092529020805460ff191691151591909117905580600581111561048a5761048a610be3565b6040516001600160a01b0384169033907f349fdac62e52dc85b55b8f76b0f91f1fef9ca6d4b07755ac804d7c97da1b198990600090a45050565b336000908152602081905260408120908260058111156104e6576104e6610be3565b60058111156104f7576104f7610be3565b815260208101919091526040016000206003015460ff166105565760405162461bcd60e51b81526020600482015260196024820152784e6f206461746120666f7220746869732063617465676f727960381b60448201526064016101f6565b3360009081526001602052604081209082600581111561057857610578610be3565b600581111561058957610589610be3565b8152602080820192909252604090810160009081206001600160a01b038616825290925290205460ff16156105f35760405162461bcd60e51b815260206004820152601060248201526f105b1c9958591e48185c1c1c9bdd995960821b60448201526064016101f6565b3360009081526001602081905260408220909183600581111561061857610618610be3565b600581111561062957610629610be3565b8152602080820192909252604090810160009081206001600160a01b03871682529092529020805460ff191691151591909117905580600581111561067057610670610be3565b6040516001600160a01b0384169033907fc2b5e6f861f43611062b511ecb54443548e07a6d51239b90892bc2a90b83339e90600090a45050565b6001600160a01b0382166000908152602081905260408120818360058111156106d5576106d5610be3565b60058111156106e6576106e6610be3565b815260208101919091526040016000206003015460ff169392505050565b3360009081526003602052604081209084600581111561072657610726610be3565b600581111561073757610737610be3565b815260208101919091526040016000205460ff166107f35733600090815260026020908152604082208054600181018255908352918190209082040180548592601f166101000a60ff8102199091169083600581111561079957610799610be3565b02179055503360009081526003602052604081206001918560058111156107c2576107c2610be3565b60058111156107d3576107d3610be3565b81526020810191909152604001600020805460ff19169115159190911790555b604051806080016040528084600581111561081057610810610be3565b815260200183838080601f01602080910402602001604051908101604052809392919081815260200183838082843760009201829052509385525050426020808501919091526001604094850152338352829052509081209085600581111561087b5761087b610be3565b600581111561088c5761088c610be3565b8152602081019190915260400160002081518154829060ff191660018360058111156108ba576108ba610be3565b0217905550602082015160018201906108d39082610cfa565b50604082015160028201556060909101516003909101805460ff191691151591909117905582600581111561090a5761090a610be3565b60405142815233907f89c3c302367dbe6fa258902dbc965e40df255bc4d409460bb7d7664494aa0b5d9060200160405180910390a3505050565b6001600160a01b03831660009081526001602052604081208183600581111561096f5761096f610be3565b600581111561098057610980610be3565b8152602080820192909252604090810160009081206001600160a01b038716825290925290205460ff1690509392505050565b6001600160a01b038116600090815260026020908152604091829020805483518184028101840190945280845260609392830182828015610a4357602002820191906000526020600020906000905b82829054906101000a900460ff166005811115610a2157610a21610be3565b815260206001928301818104948501949093039092029101808411610a025790505b50505050509050919050565b80356001600160a01b0381168114610a6657600080fd5b919050565b803560068110610a6657600080fd5b60008060408385031215610a8d57600080fd5b610a9683610a4f565b9150610aa460208401610a6b565b90509250929050565b600060208083528351808285015260005b81811015610ada57858101830151858201604001528201610abe565b506000604082860101526040601f19601f8301168501019250505092915050565b600080600060408486031215610b1057600080fd5b610b1984610a6b565b9250602084013567ffffffffffffffff80821115610b3657600080fd5b818601915086601f830112610b4a57600080fd5b813581811115610b5957600080fd5b876020828501011115610b6b57600080fd5b6020830194508093505050509250925092565b600080600060608486031215610b9357600080fd5b610b9c84610a4f565b9250610baa60208501610a4f565b9150610bb860408501610a6b565b90509250925092565b600060208284031215610bd357600080fd5b610bdc82610a4f565b9392505050565b634e487b7160e01b600052602160045260246000fd5b602080825282518282018190526000919084820190604085019084805b82811015610c4e57845160068110610c3c57634e487b7160e01b83526021600452602483fd5b84529385019392850192600101610c16565b5091979650505050505050565b600181811c90821680610c6f57607f821691505b602082108103610c8f57634e487b7160e01b600052602260045260246000fd5b50919050565b634e487b7160e01b600052604160045260246000fd5b601f821115610cf557600081815260208120601f850160051c81016020861015610cd25750805b601f850160051c820191505b81811015610cf157828155600101610cde565b5050505b505050565b815167ffffffffffffffff811115610d1457610d14610c95565b610d2881610d228454610c5b565b84610cab565b602080601f831160018114610d5d5760008415610d455750858301515b600019600386901b1c1916600185901b178555610cf1565b600085815260208120601f198616915b82811015610d8c57888601518255948401946001909101908401610d6d565b5085821015610daa5787850151600019600388901b60f8161c191681555b5050505050600190811b0190555056fea26469706673582212207b081c8a9651eba44cc26cfbc39ce18e30d560a60dffe1e0983219fe097bc5d764736f6c63430008130033",
  "linkReferences": {},
  "deployedLinkReferences": {}
}